:020000040800F2
:1000000090550020850200089B2E000873260008EA
:10001000992E0008B1050008913400080000000086
:10002000000000000000000000000000C501000802
:10003000B305000800000000210200085D3100083F
:100040009F0200089F0200089F0200089F0200080C
:100050009F0200089F0200089F0200089F020008FC
:100060009F0200089F0200089F0200089F020008EC
:100070009F0200089F0200089F0200089F020008DC
:100080009F0200089F0200089F0200089F020008CC
:100090009F0200089F0200089F0200089F020008BC
:1000A0009F0200089F0200089F0200089F020008AC
:1000B0009F0200089F0200089F0200089F0200089C
:1000C0009F0200089F0200089F0200089F0200088C
:1000D0009F0200089F0200089F0200089F0200087C
:1000E0009F0200089F0200089F0200089F0200086C
:1000F0009F020008393200089F0200089F02000892
:100100009F0200089F0200089F0200089F0200084B
:100110009F0200089F0200089F0200089F0200083B
:100120009F0200089F0200089F0200089F0200082B
:100130009F0200089F0200089F0200089F0200081B
:100140009F0200089F0200089F0200089F0200080B
:100150009F0200089F0200089F0200089F020008FB
:100160009F0200089F0200089F0200089F020008EB
:100170009F0200089F0200089F0200080000000084
:100180009F0200089F0200089F0200089F020008CB
:100190009F0200089F0200089F0200089F020008BB
:1001A0009F0200089F0200089F020008DFF810D09D
:1001B00000F0EEF800480047B13A0008AFF30080C5
:1001C000905500202C4B19680868B0E8F04F80F378
:1001D0000988BFF36F8F4FF0000080F311887047DC
:1001E0000000000008480068006880F308884FF0AD
:1001F000000080F3148862B661B6BFF34F8FBFF37F
:100200006F8F00DF00BF00BF08ED00E0DFF80C00DB
:10021000016841F470010160704700BF88ED00E0A3
:10022000EFF30980BFF36F8F134B1A681EF0100FA6
:1002300008BF20ED108A20E9F04F106009B44FF09C
:10024000500080F31188BFF34F8FBFF36F8F03F01F
:10025000F7FF4FF0000080F3118809BC19680868A7
:10026000B0E8F04F1EF0100F08BFB0EC108A80F31A
:100270000988BFF36F8F70472C000020EFF30580D3
:10028000704700000648804706480047FEE7FEE743
:10029000FEE7FEE7FEE7FEE7FEE7FEE7FEE7FEE736
:1002A00029320008AD0100082DE9F05F0546002065
:1002B00092469B4688460646814640241BE02846D7
:1002C00041464746224600F053F853465A46C01A64
:1002D000914110D311461846224600F03AF82D1AE3
:1002E00067EB01084F4622460120002100F031F85B
:1002F00017EB00094E41201EA4F10104DFDC484643
:1003000031462A464346BDE8F09F40EA01039B0779
:1003100003D009E008C9121F08C0042AFAD203E07A
:1003200011F8013B00F8013B521EF9D27047D2B2DE
:1003300001E000F8012B491EFBD270470022F6E7CE
:1003400010B513460A4604461946FFF7F0FF20464B
:1003500010BD202A04DB203A00FA02F10020704789
:100360009140C2F1200320FA03F3194390407047F3
:10037000202A04DB203A21FA02F00021704721FAFA
:1003800002F3D040C2F12002914008431946704761
:10039000064C074D06E0E06840F0010394E80700D2
:1003A00098471034AC42F6D3FFF704FF78460008B4
:1003B000984600080EB54FF47A738DE80D000A4692
:1003C0000123A021014801F00FF80EBD20130020E9
:1003D0002DE9F041064611F007000C4602F0070136
:1003E000C0F10807C2F3C70588460FD07DB1D01B06
:1003F000C0F3C70500F0070847B33A462146304628
:1004000000F094F8E019C4B23E441FE04DB90A462A
:100410000EE008222146304600F088F80834E4B2A5
:1004200008366D1EEDB2F4D2B8F1000012D00246CB
:1004300021463046BDE8F04100F078B80822214658
:10044000304600F073F80834E4B208366D1EEDB2A1
:10045000F4D2E9E7BDE8F0813EB501236422CDE99D
:10046000000302920A46A021134801F0B9F80400E3
:1004700006D012A003F080F902E0012003F054FB43
:100480000D4800F0ADFC2028F7D14FF496752A46B0
:100490002B46A021084800F06BFD30B1012003F08D
:1004A00043FBF4E7012003F03FFB034800F098FC16
:1004B0002028F7D120463EBD20130020415432347D
:1004C0004358582044617461205472616E736D69A1
:1004D00074204661696C6564210D0A001CB500201A
:1004E0008DF800000122FF216846FFF763FF9DF8A9
:1004F0000000552812D055208DF80400FF2101A8D6
:10050000FFF7AAFF0122FF216846FFF753FFC0B2A1
:100510008DF80000552801D000201CBD01201CBD15
:100520000149088070470000000000203EB56423A8
:100530008DE80D000A460123A021144801F050F86F
:10054000040006D012A003F017F902E0012003F026
:10055000EBFA0E4800F044FC2028F7D14FF49675D2
:100560002A462B46A021094800F002FD30B10120A7
:1005700003F0DAFAF4E7012003F0D6FA034800F0BA
:100580002FFC2028F7D120463EBD0000201300207C
:10059000415432344358582044617461205472618C
:1005A0006E736D6974204661696C6564210D0A0083
:1005B000FEE7704772B6FEE7074B28B109B100228B
:1005C00000E00122022104E009B1002200E0012242
:1005D0000121184600F0B8BB00040240034A08B1EC
:1005E000022100E00121104600F0A6BB00040240F9
:1005F00010B509A003F0C0F808A003F0BDF84FF44F
:10060000FA6003F091FA00F015F800F0EFF8BDE899
:10061000104000F079B800000D0A0000463432396D
:100620002054657374205374617274696E673A0D57
:100630000A00000010B58CB0182218A16846FFF718
:1006400064FE1CA003F098F84FF47A74204603F07F
:100650006BFAFF20FFF764FFFFF740FFE0B11BA03C
:1006600003F08AF8204603F05FFA1622002168465C
:10067000FFF7AEFE1622002106A8FFF79BFE06A993
:1006800018A003F079F819A003F076F84FF4FA6097
:1006900003F04AFA0CB010BD15A0E1E74154323422
:1006A000433032205445535420537563636573734C
:1006B00021000000463432395F544553543A2041FA
:1006C0005432344330320D0A0000000041543234B9
:1006D00043303220496E69742053756363657373C8
:1006E000210D0A0025730D0A000000000D0A00000C
:1006F0004154323443303220496E69742046616976
:100700006C6564210D0A0000F0B5C9B0ADF5F42D9B
:1007100021A003F031F84FF47A7003F005FA0020BD
:10072000234A01466B4600BF23F81000401C90424C
:10073000FAD300204FF40043A0F18042116000F58D
:100740008040491C9842F7D34FF040400025046890
:100750004FF000771DE000BFA5F180400468C5B1EF
:10076000B44203D8214613A003F006F8A01B401C96
:100770000004010B17A002F0FFFF05F58045BD4204
:10078000EAD34FF4FA6003F0CFF949B00DF5F42D38
:10079000F0BD2646EAE70000463432395F5445533F
:1007A000543A20415432344330320D0A00000000E4
:1007B00090D00300534452414D2054657374204639
:1007C00061696C65642120506F736974696F6E3A5A
:1007D00020256400534452414D2043617061636998
:1007E00074793A2025644B420D0A000030B58DB073
:1007F00018221CA16846FFF788FD02F0CBFE0446D4
:100800001EA002F0B9FF4FF47A75284603F08CF968
:1008100002F072FE14B3A4F57F40FF381ED02146CB
:100820001CA002F0A9FF284603F07EF91D4C1622F9
:100830006946204602F0F4FE162206A9204602F080
:1008400079FE06A918A002F097FF19A002F094FF04
:100850004FF4FA6003F068F90DB030BD15A002F056
:100860008BFFE0E75732355132353620544553542B
:100870002053756363657373210000004634323979
:100880005F544553543A20573235513235360D0AAC
:1008900000000000466C6173682049443A2025231B
:1008A000780D0A009CFF1F0025730D0A0000000050
:1008B0000D0A000052656164204944204661696C5C
:1008C0006564210D0A000000F0B5D1E907354C6AD6
:1008D0000A68C2B102682B4322F4F842144323434E
:1008E0000360D1E901231A43D1E9033423431A43B6
:1008F0004B6989691A430A4341686FF30E010A4341
:1009000042600020F0BDD1E901263243D1E90367FE
:100910003E4332434E69896932430A431A432A43AC
:10092000016822436FF30E010A430260E9E770B5E4
:1009300014460546D1E9000210438A686FF01F0390
:10094000C96803EB421242EA4121084329696FF367
:1009500015010843286100F0FDF9064609E0601C16
:1009600007D024B100F0F6F9801BA04201D9032082
:1009700070BDA8698006F2D4002070BDF0B56FF09C
:100980000F058C8A2E014FEA054ECB682F034FF0DE
:100990007F4C0EEB04540AB31A03A2F5805283680D
:1009A00022431D4C23401A438260D1E9002305EB0A
:1009B0000313521E1A438B6806EB03231A430B8A58
:1009C000097E07EB03431A430CEB01610A43C1683C
:1009D00001F070410A43C2600020F0BDD1E9002E51
:1009E00005EB0E15521E2A438D6806EB05252A439A
:1009F0000A4D05EB03331A430B8A097E07EB0343C9
:100A00001A4322430CEB01610A43816801F07041F3
:100A10000A438260E0E70000FF0F0FFF00F0FFFFD6
:100A200070B5044600F096F90546601C02D00448F3
:100A30000078044400F08EF9401BA042FAD370BD48
:100A40001C000020F0B587B014216846FFF776FC43
:100A500025480168002944D1012101602348002470
:100A6000016841F0010101600068022500F0010009
:100A700005904FF63F00CDE9000502AA03260C279A
:100A800082E8D00069461A4800F03CF80D20CDE914
:100A9000000502AA694682E8D000164800F032F844
:100AA00048F23710CDE9000502AA694682E8D00075
:100AB000114800F027F84FF68370CDE9000502AA2F
:100AC000694682E8D0000D4800F01CF84CF2037033
:100AD000CDE9000502AA694682E8D000084800F086
:100AE00011F807B0F0BD00001400002038380240B3
:100AF00000140240000802400018024000100240AA
:100B0000000C02402DE9F84FDFF8F8A10022012483
:100B100003254FF00F090AF1040BAAF1040E00BFE0
:100B20000B6804FA02F63340B34270D10F7907F034
:100B30000307012F01D0022F16D187684FEA420820
:100B400005FA08FC27EA0C07D1F80CC00CFA08FCDF
:100B50004CEA070CC0F808C04768B7430E79C6F3E3
:100B6000001696403E4346600E79F643B6070AD01B
:100B7000C7684FEA420C05FA0CF6B7438E6806FACE
:100B80000CF63E43C6600E7906F00306022E10D125
:100B9000D60800EB8608D8F8206057074FEAD76CD4
:100BA00009FA0CF7BE430F6907FA0CF73743C8F888
:100BB000207006684FEA420C05FA0CF7BE430F7925
:100BC00007F0030707FA0CF7374307604E6816F47F
:100BD000403F1CD04C4E376847F48047376036683A
:100BE00022F0030706F480460096484E07EB060CF9
:100BF000DCF8086897073F0F09FA07F826EA0806A5
:100C0000DFF80C81404503D14FF0000841E072E06D
:100C1000DFF80081404502D14FF0010839E0DFF8EC
:100C2000F880404502D14FF0020832E0DFF8EC8056
:100C3000404502D14FF003082BE0DFF8E480404547
:100C400002D14FF0040824E0DFF8D880404502D1FB
:100C50004FF005081DE0DFF8D080404502D14FF08D
:100C6000060816E0DFF8C480404502D14FF00708BF
:100C70000FE0DFF8BC80404502D14FF0080808E0E3
:100C8000DFF8B080404502D14FF0090801E04FF095
:100C90000A0808FA07F848EA0608CCF80888DAF8DB
:100CA00000605746D1F804C09E435FEACC2C00D5C3
:100CB0001E433E60DBF800605F46D1F804C09E43EF
:100CC0005FEA8C2C00D51E433E60DEF8006077465C
:100CD000D1F804C09E435FEA8C3C00D51E433E60C1
:100CE000084F083F3E68D1F804C09E435FEACC3C01
:100CF00000D51E433E60521C102AFFF411AFBDE820
:100D0000F88F0000083C01404438024000300140A8
:100D1000000002400004024000080240000C0240B3
:100D2000001002400014024000180240001C024063
:100D30000020024000240240426921EA02030A40E6
:100D400043EA0241816170470AB181617047090439
:100D5000FBE7000001488068704700001C0000208D
:100D600090F83D20202A01D002207047242280F8EC
:100D70003D200268136823F0010313600268536A80
:100D800023F0100353620268536A0B4353620168F5
:100D90000A6842F001020A60202180F83D1000201C
:100DA000704790F83D20202A01D00220704724226D
:100DB00080F83D200268136823F001031360036884
:100DC0005A6A22F00F020A4391B2596201680A6816
:100DD00042F001020A60202180F83D100020704797
:100DE00090F83D007047000070B5040025D094F8DD
:100DF0003D00002520B984F83C50204600F088FCD6
:100E0000242084F83D002068016821F00101016080
:100E10002068016841F4004101602068016821F404
:100E20000041016000F052FE4D4A6168914201D8D4
:100E30004C4900E04C49884201D2012070BD4B4929
:100E40002368B0FBF1F15E6826F03F060E435E605A
:100E50006368934206D94FF4967359434FF47A73FB
:100E6000B1FBF3F12368491C1E6A26F03F063143AB
:100E700019626168914210D84900401EB0FBF1F23E
:100E8000521CC2F30B02042A01D2042022E0B0FB60
:100E9000F1F0401CC0F30B001CE0A268F2B301EBC0
:100EA000C10303EB0116431EB3FBF6F35B1C43F4D3
:100EB00080431B0549D092B301EBC10202EB011143
:100EC000401EB0FBF1F0401CC0F30B0040F480402A
:100ED00040F400402168CA694CF6FF739A431043FE
:100EE000C861D4E9071001432068026822F0C002FB
:100EF00011430160D4E9030101432068826848F28C
:100F0000FF339A4311438160D4E905010843216806
:100F1000CA6822F0FF021043C86001E00EE016E04C
:100F20002068016841F0010101602564202084F8F7
:100F30003D00256384F83E50002070BD01EB410662
:100F4000431EB3FBF6F35B1CB3E70120C2E701EBE2
:100F50004101401EB0FBF1F0401CC0F30B00B7E7AD
:100F6000A086010080841E0000093D0040420F0061
:100F70002DE9FF4F81B089460446FFF7EBFE054699
:100F800094F83D004FF0000820287DD1192301225C
:100F900050492046009501F041FD002874D194F895
:100FA0003C00012870D0012084F83C0020680168D2
:100FB000C90703D1016841F001010160206801689F
:100FC00021F400610160242084F83D00002626649D
:100FD0004148E0624FF0011B20272068016841F47E
:100FE000807101600095002259462046049B01F063
:100FF00015FD50B120680068C00502D54FF400709F
:101000002064032005B0BDE8F08F216809F0FE00E0
:101010000861FFF79FFE2168054648694969C0F3EA
:101020004000C1F380214FF0A00A0FE0FFF792FECD
:10103000411B0498814200D808B984F83DA021687A
:1010400048694969C0F34000C1F3802194F83D200C
:10105000A02A02D008B90029E8D084F83D702068A1
:101060004169C943890716D4016841F400710160E0
:10107000206841698069192301221649204600959C
:1010800001F0CCFCB8B900E021E084F83D7084F8B0
:101090003C600020B6E7016841F4007101602168FE
:1010A0006FF480604861192301220A4920460095A7
:1010B00001F0B4FC08B10120A4E7039808F101088D
:1010C00080458AD384F83D7084F83C60F3E70220C1
:1010D00098E70000020010000000FFFF2DE9F84F24
:1010E0001F4690468A460446DDF82890FFF732FEF8
:1010F000054694F83D00202875D1192301226C493A
:101100002046009501F08AFC0028F5D194F83C00B7
:10111000012868D0012084F83C0020680168C907D4
:1011200003D1016841F0010101602068016821F4E8
:1011300000610160222084F83D00102084F83E0008
:1011400000262664C4F824806785608D2085594870
:10115000E0622B464A465146204601F0A3FA002899
:1011600078D1208D544F68B1012814D0022820680E
:10117000016816D041F4806101602068416980698E
:10118000009087E02068416981690091016841F41D
:10119000007101607EE02068016821F480610160D7
:1011A000F0E721F4806101602068016841F400618A
:1011B000E2E7032848D801280AD0022814D04B4679
:1011C000002239462046009501F028FCD8BB27E0D4
:1011D0002A464946204601F0A0FCA0BB20680069D1
:1011E000616A08704DE061E04B46002239462046B6
:1011F000009501F013FC30BB2068016841F40071D8
:10120000016020680069616A0870606A401C606261
:10121000218D491E2185618D491E618521682EE041
:101220002068016821F48061016020680069616ABA
:101230000870606A401C6062208D401E2085608DB1
:10124000401E6085D0E705E02A464946204601F069
:1012500064FC10B10120BDE8F88F20680069616A64
:101260000870606A401C6062218D491E2185618D75
:10127000491E618521684A69D24352070AD4096927
:101280000170606A401C6062208D401E2085608D68
:10129000401E6085208D00288BD1202084F83D00E1
:1012A00084F83E6084F83C600020D4E70220D2E756
:1012B000020010000000FFFF040001002DE9F84FBC
:1012C0001F4690468A460446DDF82890FFF742FD07
:1012D000054694F83D0020287FD11923012240497A
:1012E0002046009501F09AFB002876D194F83C0046
:1012F000012872D0012084F83C0020680168C907E9
:1013000003D1016841F0010101602068016821F406
:1013100000610160212084F83D00102084F83E0027
:1013200000262664C4F824806785608D20852D48BA
:10133000E0622B464A465146204601F029FA90B910
:10134000206841698069009036E02A464946204677
:1013500001F016FC50B1206C042804D1206801680B
:1013600041F4007101600120BDE8F88F606A2168D6
:1013700000780861606A401C6062618D491E618569
:10138000218D491E89B2218522685369DB435B07A1
:101390000BD451B100781061606A401C6062608DAE
:1013A000401E6085208D401E20852A4649462046E5
:1013B00001F00EFB0028CED1208D0028C5D154F8B5
:1013C0003D0B016841F400710160202004F81E0902
:1013D000E67766770020C7E7FFE70220C4E7000052
:1013E000020010000000FFFF2DE9FF4F83B09A4676
:1013F000DDE9119793460446DDF84080FFF7AAFC2B
:10140000054694F83D00202870D119230122714926
:101410002046009501F002FB0028F5D194F83C002D
:10142000012863D0012084F83C0020680168C907C6
:1014300003D1016841F0010101602068016821F4D5
:1014400000610160222084F83D00402084F83E00C5
:1014500000262664C4F82480A4F82A90608D208594
:101460005D48E062CDE9007553465A46204604992E
:1014700001F0DCF900287CD1208DD0B1012821D0E9
:101480000228206824D0416980690090208D0328BB
:1014900069D801282BD0514902283B464FF0000261
:1014A000009559D08846204601F0B8FA002860D14E
:1014B0003CE02068416981690091016841F4007154
:1014C000016077E02068016821F480610160F0E745
:1014D000016821F4806101602068016841F40061C5
:1014E0000160206841698069009063E06FE02A46EE
:1014F0003946204601F011FB98BB20680069616AFB
:1015000008704EE02068016841F4007101602068B5
:101510000069616A0870606A401C6062218D491E22
:101520002185618D491E6185216838E02068016848
:1015300021F48061016020680069616A0870606A56
:10154000401C6062208D401E2085608D401E60859D
:101550003B46002241460095204601F05FFA00B963
:10156000D0E706E0FFE72A463946204601F0D5FAE3
:1015700018B1012007B0BDE8F08F20680069616AEA
:101580000870606A401C6062218D491E2185618D52
:10159000491E618521684A69D24352070AD4096904
:1015A0000170606A401C6062208D401E2085608D45
:1015B000401E6085208D00287FF468AF202084F8CD
:1015C0003D0084F83E6084F83C600020D2E70220B1
:1015D000D0E70000020010000000FFFF040001003F
:1015E0002DE9FF4F83B09A46DDE9119793460446F3
:1015F000DDF84080FFF7AEFB054694F83D0020285B
:101600007FD11923012240492046009501F006FAB6
:10161000002876D194F83C00012872D0012084F88B
:101620003C0020680168C90703D1016841F001014D
:1016300001602068016821F400610160212084F8C4
:101640003D00402084F83E0000262664C4F8248033
:10165000A4F82A90608D20852C48E062CDE90075C1
:1016600053465A462046049901F05EF970B930E0BD
:101670002A463946204601F083FA58B1206C0428E6
:1016800004D12068016841F400710160012007B0B5
:10169000BDE8F08F606A216800780861606A401CCC
:1016A0006062218D491E89B22185628D521E62853C
:1016B00022685369DB435B070BD469B10078106182
:1016C000606A401C6062208D401E2085608D401E37
:1016D0006085208D0028CBD12A463946204601F06E
:1016E00077F90028CAD154F83D0B016841F4007124
:1016F0000160202004F81E09E67766770020C6E71F
:10170000FFE70220C3E70000020010000000FFFF17
:1017100010B586B0044614216846FEF70FFE134943
:101720002068884220D112480021026842F08002DD
:101730000260006800F080000590302000901220C8
:10174000CDE9010103200390042004906946094873
:10175000FFF7D8F906481030016841F480010160B4
:10176000006800F48000059006B010BD00580040ED
:1017700030380240001C024002488168027811445F
:10178000816070471C0000200B4810B5016841F4CF
:1017900000710160016841F480610160016841F4F9
:1017A00080710160032000F08DF80F2000F006F832
:1017B00000F03EF8002010BD003C024010B501468C
:1017C00088B000222D2000F05DF82D2000F04CF8AC
:1017D00013480024016841F480710160006805A984
:1017E00000F480700690684600F050F900F06EF941
:1017F0000C494000B0FBF1F10C480B4A491E026055
:1018000040F2E732C0E90324C0E9011400F02FFDE3
:1018100010B1012008B010BD044800F069FDF9E7DF
:101820004038024040420F00002000405814002081
:101830000C4882B0016841F480410160006800F406
:10184000804000900748001F016841F0805101600E
:101850000068002200F0805000900F21901E02B01E
:1018600000F010B844380240002809DB00F01F02E5
:10187000012191404009800000F1E020C0F80011F2
:1018800070470000F0B40E4B1B680C46C3F30223F4
:10189000C3F10705042D00D90425191D072901D21C
:1018A000002300E0DB1E012606FA05F1491E214057
:1018B00099409E40761E16403143F0BC01F06CBF4B
:1018C0000CED00E0064900F0070208684FF6FF0340
:1018D000184040EA0220034A1043086070470000A5
:1018E0000CED00E00000FA052DE9F8431748016807
:1018F00041F0805101600068154F00F080500126D2
:1019000000903E64FFF726FA05464FF47A78114CB2
:1019100005E000BFFFF71EFA401B40450DD8606888
:10192000C003F7D57E64FFF715FA0546464607E083
:10193000FFF710FA401BB04202D90320BDE8F8833C
:1019400060688003F4D50020F8E7000040380240CA
:1019500000000E42007000402DE9F0470E460500E1
:1019600065D0DFF81481D8F80000F7B200F00F005E
:10197000B04207D288F80070D8F8000000F00F00DD
:10198000B04254D128683D4C810712D5400703D599
:10199000206840F4E05020602878000703D52068D4
:1019A00040F4604020602068A96820F0F0000843FF
:1019B00020602878C0072DD0304968680839012890
:1019C00012D0022813D0032811D0096889070029F2
:1019D0002DDA216821F0030101432160FFF7BAF9F4
:1019E000814641F2883A0EE009688903EFE7096809
:1019F0008901ECE7FFF7AEF9A0EB0901514502D9E7
:101A00000320BDE8F0872068696800F00C00B0EBA7
:101A1000810FEFD1D8F80010404601F00F01B1421C
:101A200007D90770006800F00F00B04201D0012014
:101A3000E7E72878400705D52068E96820F4E050FA
:101A4000084320602878000706D52068296920F41B
:101A5000604040EAC100206000F058F82168084A60
:101A6000C1F30311515CC84006490860064800688C
:101A7000FFF7A4FE0020C4E7003C02400838024003
:101A80004046000828000020200000200F220260AD
:101A90000C4A136803F003034360136803F0F00378
:101AA0008360136803F4E053C36012684FF4E0539B
:101AB00003EAD20202610448006800F00F000860E7
:101AC0007047000008380240003C024004480549C5
:101AD00000680968044AC1F38221515CC84070471C
:101AE00028000020083802405046000804480549F4
:101AF00000680968044AC1F34231515CC84070472C
:101B0000280000200838024050460008154810B54B
:101B1000006810F00C02144813D01449042A0FD0A6
:101B2000082A0ED10F4C241F2268236802F03F02BE
:101B30005B0207D52068C0F38810A0FB010106E016
:101B4000084610BD2168C1F38811A1FB00010023E4
:101B5000FEF7AAFB2168C1F30141491C4900B0FB13
:101B6000F1F010BD083802400024F40040787D01F7
:101B70002DE9F84F04006ED02078DFF84C93C007B1
:101B8000A9F104054AD009F104000168C1F38101FB
:101B9000012908D00068C0F3810002280AD1D9F8D1
:101BA0000000400206D52868800337D56068002809
:101BB000E1D033E06068B0F5803F10D0B0F5A02FE1
:101BC000286810D020F480302860286820F4802015
:101BD00028606068A8B1FFF7BDF806460DE02868E8
:101BE00040F48030F4E740F480202860F7E700BF3D
:101BF000FFF7B0F8801B642873D828688003F7D5F6
:101C00000CE0FFF7A7F8064605E000BFFFF7A2F8D3
:101C1000801B6428F0D828688003F7D42078DFF888
:101C2000AC8280074FF0000A3ED5A748001D01682E
:101C300011F00C0F08D00068C0F3810002280BD10E
:101C4000D9F80000400207D42868800716D5E0685C
:101C5000012800D112E033E1E068B8B10120C8F8F2
:101C60000000FFF777F8064605E000BFFFF772F8BF
:101C7000801B0228C0D828688007F7D5286821690A
:101C800020F0F80040EAC10028600DE0C8F800A08C
:101C9000FFF760F8064604E0FFF75CF8801B0228B7
:101CA0001FD828688007F7D42078000722D5864FF0
:101CB00087486169703771B101210160FFF74AF807
:101CC000064604E0FFF746F8801B022809D838686A
:101CD0008007F7D50EE0C0F800A0FFF73BF80646F6
:101CE00005E082E0FFF736F8801B02287DD83868CF
:101CF0008007F7D42078400768D5DFF8CCB10027FB
:101D00000BF13C0BDBF80000C0000BD4DBF800103B
:101D100041F08051CBF80010DBF80000012700F003
:101D2000805000906B4E3068C00510D4306840F48D
:101D300080703060FFF70EF8009005E0FFF70AF8BA
:101D40000099401A022850D83068C005F6D55E4E7A
:101D5000A0686C3601280FD00528306810D020F01C
:101D600001003060306820F004003060A068B8B135
:101D7000FEF7F0FF00900FE0306840F00100F4E75C
:101D800040F004003060F7E7FEF7E4FF0099411AE5
:101D900041F28830814266D830688007F4D50EE081
:101DA000FEF7D8FF009007E0FEF7D4FF0099411A34
:101DB00041F28830814256D830688007F4D42FB180
:101DC000DBF8001021F08051CBF80010A069C8B3F7
:101DD0003D49091D0968C1F3810102294AD0022841
:101DE000504607D0C8F8600000E03CE0FEF7B2FFC4
:101DF00004463BE04746C8F86000FEF7ABFF0646E6
:101E000005E000BFFEF7A6FF801B02282BD828683C
:101E10008001F7D4D4E907010843A16A2E4A490892
:101E200002EB0141626A41EA8211084394F82C10E6
:101E300040EA0161C9F8001001203866FEF78AFF08
:101E4000044606E03EE000BFFEF784FF001B0228C8
:101E500009D828688001F7D534E000BFFEF77AFF83
:101E6000001B022802D90320BDE8F88F28688001F2
:101E7000F4D427E00128F7D0D9F80000E26900F493
:101E8000800191421CD1226A00F03F01914217D19A
:101E900047F6C071626A0140B1EB821F10D1A26A9D
:101EA0004FF0FF3300F4403103EB5202B1EB024F2D
:101EB00006D194F82C1000F07060B0EB016F01D0E7
:101EC0000120D1E70020CFE704380240000047425C
:101ED000800E4742007000400000FFFF70B50D46C5
:101EE000040003D094F82C0010B107E0012070BD6D
:101EF000002084F82D00204600F011F8022084F81C
:101F00002C00211D2068FEF7DFFCD4E900022946E1
:101F1000FEF734FD012084F82C00002070BDFEF790
:101F200091BD000070B5044690F82C000D460228C3
:101F300004D0012803D0052801D0012070BD022063
:101F400084F82C002068FEF7F2FC2868022805D0EF
:101F50005FF0010084F82C00002070BD0520F9E737
:101F600070B5040009D0606A002540B12561656143
:101F7000A56294F8510040B10CE0012070BD60688A
:101F8000B0F5827FF4D0E561F2E784F85050204646
:101F900000F044F8022084F851002068016821F024
:101FA00040010160A088218900F4827001F404419D
:101FB0000843A18901F400610843217C01F002017A
:101FC0000843217D01F001010843218B01F40071D8
:101FD0000843217F01F03801084394F8201001F0F4
:101FE00080010843218D01F40051084321680860F5
:101FF000A069042101EA104094F8241001F01001B6
:102000000843216848602068C16921F40061C1610A
:102010006565012084F85100002070BD10B586B0C0
:10202000044614216846FEF789F91449206888425D
:1020300021D113480021026842F480120260006836
:1020400000F4801005900E481438026842F0200217
:102050000260006800F0200005904FF4607000906E
:102060000220CDE901010320039005200490694678
:102070000448FEF747FD06B010BD000000500140C7
:1020800044380240001402402DE9F84F044690F80D
:10209000500000270A9E1D4692468B464FF00109CC
:1020A00001280ED0012084F85000FEF753FE804630
:1020B00094F85100616801280CD0B1F5827F07D1F6
:1020C00002E00220BDE8F88FA16809B9042801D018
:1020D0000227C2E0BBF1000F27D0BAF1000F24D0D5
:1020E0001DB394F85100042802D0052084F8510053
:1020F00000206065C4F838A0E587A587C4F830B033
:10210000E586A5862064606420680168490603D4DA
:10211000016841F040010160E068B0F5006F60685F
:1021200005D0E8B3012D46D07FE0012795E008B146
:10213000012D39D1206B21680088C860206B801C7C
:102140002063E08E401EE0862EE0206881688907CB
:102150000FD5E18E69B1B9F1010F0AD1216B098860
:10216000C160206B801C2063E08E401EE0864FF033
:10217000000920688168C9070CD0E18F51B1C0689F
:10218000A16B0880A06B801CA063E08F401EE087DD
:102190004FF00109FEF7DEFDA0EB0800B04200E0C1
:1021A00009E001D3701C50D1E08E0028CDD1E08F22
:1021B0000028CAD13FE0206B216800780873206BAB
:1021C000401C2063E08E401EE0862EE0206881687F
:1021D00089070FD5E18E69B1B9F1010F0AD1216BE1
:1021E00009780173206B401C2063E08E401EE0865E
:1021F0004FF0000920688168C9070CD0E18F51B108
:10220000C068A16B0870A06B401CA063E08F401EEB
:10221000E0874FF00109FEF79DFDA0EB0800B042FA
:1022200002D3701C01D010E07EB1E08E0028CDD129
:10223000E08F0028CAD142463146204600F0C8FE51
:1022400028B101272020606507E0032705E0A0688A
:1022500018B92068C16880680090012084F8510096
:10226000002084F8500038462CE77047704710B5BE
:10227000040003D094F83D0010B107E0012010BD28
:10228000002084F83C00204600F01EF8022084F86C
:102290003D00211D206800F0D5FF012084F8460094
:1022A00084F83E0084F83F0084F8400084F8410040
:1022B00084F8420084F8430084F8440084F8450020
:1022C00084F83D00002010BD08B50068064988422A
:1022D00008D10648016841F400310160006800F44B
:1022E0000030009008BD0000004401404438024026
:1022F00090F83D10012901D001207047022180F89B
:102300003D100168CA6842F00102CA6000681149C4
:10231000884214D0B0F1804F11D00F4988420ED0BE
:102320000E4988420BD00E49884208D00D49884298
:1023300005D00D49884202D00C49884204D18168F9
:1023400001F00701062903D0016841F00101016095
:1023500000207047000001400004004000080040D9
:10236000000C004000040140004001400018004003
:10237000704770B50446006801694FF00005C94315
:10238000890715D4C168C943890711D4E91E0161C1
:1023900001202077206880698007204602D0FFF75F
:1023A000E7FF04E000F098F8204600F096F8257763
:1023B00020680169C943490717D4C168C94349075F
:1023C00013D46FF004010161022020772068806936
:1023D00010F4407F204602D0FFF7CAFF04E000F06F
:1023E0007BF8204600F079F8257720680169C94319
:1023F000090716D4C168C943090712D46FF0080150
:102400000161042020772068C0698007204602D03F
:10241000FFF7AEFF04E000F05FF8204600F05DF843
:10242000257720680169C943C90617D4C168C94323
:10243000C90613D46FF010010161082020772068CD
:10244000C06910F4407F204602D0FFF791FF04E0FE
:1024500000F042F8204600F040F825772068016936
:10246000C943C90708D1C168C943C90704D1891E36
:102470000161204600F032F820680169C94309066D
:1024800009D4C168C943090605D46FF08001016110
:102490002046FFF7EAFE20680169C943490609D4CE
:1024A000C168C943490605D46FF040010161204667
:1024B00000F01EF820680169C94389060BD4C16881
:1024C000C943890607D46FF0200101612046BDE8A9
:1024D0007040FFF7CBBE70BD70477047006803497E
:1024E000884201D1FFF748B9704700000020004042
:1024F000704770B5040004D094F83D00002510B179
:1025000006E0012070BD84F83C50204600F022F81F
:10251000242084F83D002068C16821F40051C16086
:10252000204600F0F3FE2068016921F4904101612A
:102530002068416921F02A0141612068C16841F4A5
:102540000051C1602564202084F83D0084F83E00DD
:10255000002070BD10B586B0044614216846FDF712
:10256000EDFE14492068884221D1134800210268F9
:1025700042F010020260006800F0100005900E4862
:102580001438026842F001020260006800F00100A5
:1025900005904FF4C06000900220CDE901010320B6
:1025A00003900720049069460448FEF7ABFA06B092
:1025B00010BD0000001001404438024000000240FD
:1025C0002DE9F843044690F83D001F4616460D4697
:1025D00020284CD1C5B1BEB194F83C00012846D0AA
:1025E000012084F83C004FF00008C4F8408021200E
:1025F00084F83D00FEF7AEFBA6848146E684A06821
:10260000B0F5805F03D004E00120BDE8F8832069C5
:1026100028B12E465FF0000584F83C800EE00026CD
:10262000FAE78021204600F0F7FEA0B9AEB116F817
:10263000010B21684860E08C401EE084E08C4B4632
:102640004FF0000200970028EBD14FF040012046E8
:1026500000F0E2FE30B10320D7E735F8020BC0F3FB
:102660000800E6E7202084F83D000020CDE70220A6
:10267000CBE7FEE701684A69D24352050FD46FF4F5
:1026800080624A61002140F8301F2022427381732A
:10269000026942F0040202610173012070470020C8
:1026A000704700002DE9F84F0446C06A1E46934665
:1026B0000D4621680A6842F480620A60082807D043
:1026C000012805D010F5803F02D0206B112804D1DD
:1026D0002068016841F4807101604FF001195B4688
:1026E000002249462046009600F098F94FF4007801
:1026F00040B120680068C00501D5C4F840800320BF
:10270000BDE8F88F2069DFF884A0B0F5804F0FD0C6
:102710000620216800EAD51747F0F000086133462B
:102720005A460AF10601204600F0ACF958BB03E016
:10273000E8B240F001001CE02168E8B208613346CD
:102740005A465146204600F09DF9E0B9206841699B
:1027500081690091016841F4807101605B4600224B
:1027600049462046009600F059F90028C1D147F0AB
:10277000F1002168086133465A465146204600F070
:1027800081F90028BCD00120BAE700000200010056
:10279000F8B50446C06A1E460D461746082807D0FD
:1027A000012805D010F5803F02D0206B122804D1FB
:1027B0002068016841F480710160134600224FF0E7
:1027C00001112046009600F029F940B12068006808
:1027D000C00502D54FF4007020640320F8BD2069C5
:1027E000B0F5804F0ED00620216800EAD51040F0E9
:1027F000F000086133463A460B49204600F042F9A2
:1028000078B902E005F0FE0000E0E8B22168086156
:10281000054933463A46891F204600F033F900281F
:10282000DCD00120F8BD0000080001002DE9F84FC0
:102830000446006889460B9D01689846174641F496
:10284000806101602068016841F480710160009539
:102850004FF0011B0022594620460A9B00F0DEF88B
:102860004FF4007A40B120680068C00501D5C4F873
:1028700040A00320BDE8F88F216809F0FE00086140
:102880002B46284920460A9A00F0FCF8F0BB206845
:102890004169806900902A4620460A9900F070F943
:1028A00040B1206C04283AD12068016841F40071DD
:1028B000016034E0FEB2B8F1010F09D02168380A96
:1028C00008612A4620460A9900F05AF90028E8D102
:1028D000206806612A4620460A9900F051F900282E
:1028E000DFD12068016841F4807101600095002209
:1028F000594620460A9B00F091F80028B3D1216880
:1029000009F0FF0040F00100086100E007E02B46FD
:10291000044920460A9A00F0B5F80028AAD0012000
:10292000A8E70000020001002DE9F8430446006812
:102930000D46DDE9089701689846164641F4807116
:1029400001604B4600224FF001112046009700F035
:1029500065F848B120680068C00502D54FF40070E2
:1029600020640320BDE8F883216805F0FE000861BB
:102970003B464A461549204600F084F888B920684D
:102980004169806900903A464946204600F0F8F8CF
:1029900048B1206C042804D12068016841F400711A
:1029A00001600120DEE7F5B2B8F1010F09D021681E
:1029B000300A08613A464946204600F0E1F800280E
:1029C000E7D1206805610020CCE70000020001008B
:1029D00070B516460D4604460DE02046FFF74AFE48
:1029E00008B1012070BD681C05D0FEF7B3F9801B4B
:1029F000A84207D835B120684069C0434007ECD4ED
:102A0000002070BD002044F8300F20216173A073B6
:102A1000216941F0200121612073E2E72DE9F047AF
:102A20001E4690460D460446C1F30747DDF8209048
:102A300008E0701C06D0FEF78DF9A0EB0900B0424B
:102A40000FD876B12068012F18D0806925EA0000E0
:102A50000004000C14D000214145EAD00020BDE85C
:102A6000F087002044F8300F20216173A0732169A2
:102A700041F02001216120730120F0E74069E5E782
:102A80000121E9E72DE9F0479A4691460E460446B2
:102A900000254FF02008C1F3074725E02068406972
:102AA000C043400514D42068016841F400710160FE
:102AB00021686FF480604861256384F83D8084F864
:102AC0003E50206C40F00400206484F83C501FE02D
:102AD000B9F1FF3F08D0FEF73DF9A0EB0A014945E7
:102AE0000CD8B9F1000F09D02068012F13D08069EC
:102AF00026EA00000004000C0BD0CFE744F8305F5A
:102B000084F80D80A573206940F0200020612573B2
:102B10000120BDE8F0874069EAE72DE9F041002592
:102B200090460E460446202717E04069C043C00681
:102B30000CD454F8301B6FF01000486144F8105961
:102B40006777A577206A2062257717E0FEF702F9FC
:102B5000A0EB0800B04208D83EB120684169C943E3
:102B60004906E2D40020BDE8F08144F8305F677385
:102B7000A573206940F02000206125730120F2E751
:102B800070B516460D4604460DE02046FFF772FD6F
:102B900008B1012070BD681C05D0FEF7DBF8801B72
:102BA000A84207D835B120684069C0430006ECD47C
:102BB000002070BD002044F8300F20216173A07305
:102BC000216941F0200121612073E2E700B587B05F
:102BD0001C216846FDF7B2FB164815490022C0E9E2
:102BE00000120121816008211023C0E90313402352
:102BF00043614FF4C073C0E906320A0202624A021E
:102C000042628A0282620220CDE90001062102911D
:102C100003910421CDE90410069069460548FFF7A9
:102C20005DF9002801D0FDF7C5FC07B000BD00002C
:102C3000400100A0EC12002010B59CB01C221649E7
:102C40006846FDF762FB0021684600F079FF134CEF
:102C500011491C2220601C3107A8FDF756FB0021FA
:102C600007A800F06DFF0C4960601C2238310EA8E7
:102C7000FDF74BFB00210EA800F062FF0649A060A3
:102C80001C22543115A8FDF740FB002115A800F0C7
:102C900057FFE0601CB010BDD045000804000020C4
:102CA0002DE9F04186B014216846FDF747FB334813
:102CB0000024016841F004010160016801F0040191
:102CC0000591016841F020010160016801F02001D7
:102CD0000591016841F080010160016801F0800107
:102CE0000591016841F002010160016801F00201F3
:102CF0000591016841F040010160016801F0400167
:102D00000591016841F010010160016801F01001B6
:102D10000591016841F008010160016801F00801B6
:102D20000591016841F0010101600068144F00F055
:102D300001000590002240213846FEF705F8DFF833
:102D4000448041F20306012231464046FDF7FCFF74
:102D5000402000900125CDE901546946384603948E
:102D6000FDF7D0FECDE90065CDE902546946404645
:102D7000FDF7C8FE06B0BDE8F08100003038024023
:102D80000014024000040240144810B512490160CA
:102D9000134941600021CC22C0E902124FF4804265
:102DA000C0E904218161C1610162FEF71DF808B12B
:102DB000FDF700FC00210948FDF7D2FF08B1FDF73F
:102DC000F9FB00210548FDF7ECFF002803D0BDE822
:102DD0001040FDF7EFBB10BD00580040201300204D
:102DE000A0860100104810B50E4901604FF48271B1
:102DF0004160002102228160C0E903120122426188
:102E00005202C0E906210162416281620A21C16267
:102E1000FFF7A6F8002803D0BDE81040FDF7CABBB5
:102E200010BD000000500140741300200B4810B585
:102E300009490160B321416000214FF6FF72C0E9EA
:102E4000021201618161FFF712FA002803D0BDE888
:102E50001040FDF7AFBB10BD00440140CC13002073
:102E60000C4810B50A4901604FF4E131416000217E
:102E700081600C22C160C0E904128161C161FFF769
:102E800038FB002803D0BDE81040FDF793BB10BD10
:102E90000010014014140020FEE7FEE710B50122E7
:102EA00011030748FDF750FFFF2000F03DF800F048
:102EB00009F8FF2801D0012010BD002010BD00003E
:102EC000000402401CB5FF208DF80400642000902F
:102ED000012301AA41210548FEF700F910B104A021
:102EE00000F04AFC9DF804001CBD000020130020E7
:102EF0005043463835373420526561642046616955
:102F00006C6564210D0A000070B50C460546FFF79C
:102F1000D9FF0122AA402CB10243D0B2BDE87040D3
:102F200000F002B89043F9E701B582B06420009048
:102F3000012302AA40210248FEF7C0F90EBD00009D
:102F40002013002010B5002301221146184600F07E
:102F500019F8012000F0E8FD0023012202211846A3
:102F600000F010F8002308220321184600F00AF8A8
:102F700001220421BDE810404FF40C73002000F042
:102F800001B800001FB560B1082001AC009184E8D1
:102F90000D004FF4805269460348FEF7C3FF04B0AA
:102FA00010BD1020F1E70000EC12002001B582B046
:102FB00000208DF80400FF200090012301AA02A93F
:102FC0000248FFF761F89DF804000EBD741300205D
:102FD00038B504461248134B0068B0FBF3F04FF4C9
:102FE0007A73584300906068B0F5827F0DD10B462C
:102FF000009200228021204600F016F870B1606D2A
:1030000040F020006065032038BD009830B1401EBC
:10301000009020688068C0430006F6D5002038BDC7
:103020002800002000366E012DE9F8431E46914627
:1030300088460446089DFDF78DFE401B351AFDF7B6
:1030400089FE074625480068C0F3CB30684338E066
:10305000701C37D0FDF77EFEC01BA84203D215B10D
:10306000009860B32CE02068416821F0E0014160E5
:103070006068B0F5827F0BD1A068B0F5004F02D038
:10308000B0F5806F04D12068016821F04001016033
:10309000A06AB0F5005F09D12068016821F40051F1
:1030A00001602068016841F400510160012084F84A
:1030B0005100002084F850000320BDE8F88300256B
:1030C000401E00902068816838EA010004D0002189
:1030D0004945BDD10020F0E70121F9E72800002093
:1030E000FFF7DCFEFFF72EFF012000F01DFDFBE7E0
:1030F00001210846FDF760FA00210846FFF704FFAA
:10310000C82000F011FD01210020FFF7FDFE4FF463
:10311000487000F009FD00210120FDF74DFA40F252
:1031200052340020FDF75AFA962000F0FDFC0020F2
:10313000FDF754FA204600F0F7FCF2E74FF47A70FE
:1031400000F0F2FC0120FBE74FF47A7000F0ECFC99
:10315000FDF74EFA012000F0E7FCFBE710B5502028
:1031600080F31188BFF34F8FBFF36F8F01F068F9C1
:1031700018B104494FF080500860002080F3118896
:1031800010BD000004ED00E030B593B0302168467A
:10319000FDF7D4F814210CA8FDF7D0F8204800253D
:1031A000016841F080510160006800F0805011908A
:1031B0001C48016841F4404101600068022400F4A9
:1031C0004040119001200090000401908001CDE961
:1031D0000640192008904FF4B470CDE9090404208A
:1031E0000B906846FEF7C4FC08B172B6FEE7FEF726
:1031F0007BFB08B172B6FEE70CA90F2081E8310015
:103200004FF4A0500F904FF48050109005210CA85F
:10321000FEF7A2FB002801D072B6FEE713B030BD66
:1032200040380240007000400248016841F47001DB
:103230000160704788ED00E00148FFF79AB8000090
:1032400058140020F0B50268254C264D264E274F15
:10325000274B4FF0804CA04209D0604507D0A842D0
:1032600005D0B04203D0B84201D0984204D122F038
:10327000700E4A6842EA0E02A0421BD0604519D087
:10328000A84217D0B04215D0B84213D0984211D0FE
:10329000184DA8420ED0184DA8420BD0174DA84289
:1032A00008D0174DA84205D0164DA84202D0164DA1
:1032B000A84203D122F44075CA682A434D6922F01E
:1032C00080022A4302608A68C2620A688262A0425F
:1032D00001D0984201D10969016301214161F0BD2A
:1032E000000001400004004000080040000C0040C5
:1032F00000040140004001400044014000480140FA
:1033000000180040001C00400020004070B504463A
:1033100000680169E26821F44051114301612169AB
:10332000A068E26908436169114308432168CA68DB
:1033300049F20C639A430243CA6020684169A2695A
:1033400021F440711143416131492068884202D023
:103350003049884202D1FEF7C9FB01E0FEF7B6FB17
:10336000E2690023192164253226B2F5004F626814
:1033700028D0A0FB0101930F9200FCF795FF0146B6
:10338000B0FBF5F06FF01802504301EB800006EB44
:103390000010B0FBF5F000F0F002B1FBF5F002EB2D
:1033A0000012B1FBF5F06FF01803584301EB8000F9
:1033B00006EB0010B0FBF5F000F00F0021681044A0
:1033C000886070BDA0FB010192185B41FCF76CFFA7
:1033D0000146B0FBF5F00201B1FBF5F06FF0180308
:1033E000584301EB800006EBC000B0FBF5F000F0A5
:1033F000F80002EB4002B1FBF5F0584301EB80000E
:1034000006EBC000B0FBF5F000F00700D6E70000C7
:1034100000100140001401402DE9F0419846174684
:103420000E460446069D27E0681C25D02DB1FDF709
:1034300091FCA0EB0800A8421ED920680C3050E88F
:10344000001F21F4D07140E80012002AF5D1206855
:10345000143050E8001F21F0010140E80012002A5A
:10346000F5D1202084F83D0084F83E00002084F847
:103470003C000320BDE8F0812068006836EA0000C7
:1034800004D00020B842CFD00020F3E70120F9E7B4
:10349000FEE70000024640210148FDF755BC000050
:1034A0000014024010B5040300F008F900F0ACF875
:1034B0000020FFF7EFFF2020FFF778FD0D48008880
:1034C000A0F56F41183902D1200EFFF76FFDC4F34C
:1034D0000740FFF76BFDC4F30720FFF767FDE0B27D
:1034E000FFF764FD0120FFF7D5FFBDE8104000F0B5
:1034F0008BB800000200002010B50120FFF7CAFFC2
:1035000000F048F80A490880A0F56F4118390ED13B
:10351000032000F05EF8C00709D1FFF7BBFFB7201A
:10352000FFF744FDBDE810400120FFF7B3BF10BD19
:103530000200002070B5044615460E460020FFF735
:10354000A9FF0320FFF732FD11480088A0F56F4165
:10355000183902D1200EFFF729FDC4F30740FFF709
:1035600025FDC4F30720FFF721FDE0B2FFF71EFDA4
:10357000002405E0FF20FFF719FD3055641CA4B2BC
:10358000AC42F7D3BDE870400120FFF783BF0000D5
:103590000200002010B500242046FFF77BFF90209A
:1035A000FFF704FD0020FFF701FD0020FFF7FEFC00
:1035B0000020FFF7FBFCFF20FFF7F8FC44EA0024A3
:1035C000FF20FFF7F3FC04430120FFF763FF2046D1
:1035D00010BD10B5012803D0022803D0032803D062
:1035E000052402E0352400E015240020FFF752FFF7
:1035F0002046FFF7DBFCFF20FFF7D8FC0446012044
:10360000FFF748FF204610BD10B50120FFF7E1FF8E
:10361000C007FAD1BDE81040012000F085BA0000D3
:103620002DE9F05FC0F30B06DFF88C80070BC6F5C1
:1036300080548A4681461546A24200D81446380373
:1036400083464FF480524146FFF774FF002006E0A6
:10365000321818F80210FF2903D1401C80B2A04292
:10366000F6D3A04222D23846FFF71CFF002006E026
:103670001AF800208319401C08F8032080B2A042E9
:10368000F6D358464FF480524FEA080100F022F872
:10369000A5420FD0281BA244A144002685B24FF4B6
:1036A00080547F1CA542CAD82C46C8E72246514602
:1036B0004846EBE7BDE8F09F9800002010B50020D9
:1036C000FFF7E8FE0620FFF771FCBDE8104001207F
:1036D000FFF7E0BE2DE9F0410646C0B2C0F58074A8
:1036E0000F461546A24200D814464FF48078224671
:1036F0003946304600F00EF8A54208D0281B274472
:10370000264485B24446A542F1D82C46EFE7BDE8F1
:10371000F081000070B515460E460446FFF7CEFF57
:103720000020FFF7B7FE0220FFF740FC1148008899
:10373000A0F56F41183902D1200EFFF737FCC4F312
:103740000740FFF733FCC4F30720FFF72FFCE0B27C
:10375000FFF72CFC002404E0305DFFF727FC641C1D
:10376000A4B2AC42F8D30120FFF794FEBDE870404C
:10377000FFF74ABF020000200FB4054B10B503A9A4
:10378000044A029800F028F810BC5DF814FB000011
:10379000993A0008940000200907090E002804DB6C
:1037A00000F1E02080F80014704700F00F0000F1F5
:1037B000E02080F8141D704702E008C8121F08C1FD
:1037C000002AFAD170477047002001E001C1121FA2
:1037D000002AFBD1704700002DE9FF4F8DB09B46BA
:1037E0000F460446002606E025280BD05A460F99BE
:1037F0009047641C761C20780028F5D111B0304623
:10380000BDE8F08F0025A8460122984900E0054355
:1038100014F8013F203B02FA03F00842F7D1207868
:103820002E2817D114F8010F45F004052A280ED0D0
:103830006FF02F022078A0F1300109290AD808EB97
:10384000880102EB410100EB0108641CF2E757F824
:10385000048B641C20786C280DD004DC4C2812D01A
:103860006A2811D104E074280DD07A280CD10AE01E
:1038700045F4001507E0617845F48015814202D1D6
:10388000641C05F58015641C2078692844D008DC88
:103890000028B3D0582867D063280FD0642808D1F7
:1038A0003AE0702865D0732812D075285AD078284D
:1038B0005AD05A460F999047761CD5E017F8040B5A
:1038C0008DF8000000208DF80100E946012003E09A
:1038D00057F8049B4FF0FF3069074FF0000501D403
:1038E0000AE06D1C45450DDA8542FADB19F8051032
:1038F0000029F6D106E06D1C8542FCDB19F80510A5
:103900000029F8D12E4404E019F8010B5A460F990A
:1039100090476D1EF8D2A7E00A200021CDE90801EA
:10392000C5F3025002280CD001CFC117021E71F15D
:1039300000020CDA0023D0EB030063EB01012D221F
:1039400008E0FF1D27F00707F7E80201EEE72A0568
:1039500004D52B228DF8282001223CE0EA073AD03A
:103960002022F7E70A2000E010200021CDE908011D
:1039700007E01020002145F00405CDE908014FF0D3
:103980000808C5F30250022810D001CF00214FF0E3
:10399000000A2A0720D52278702A0DD0DDE908C355
:1039A0008CF0100C5CEA030C0CD015E0FF1D27F026
:1039B0000707F7E80201EAE740228DF828204FF0D8
:1039C000010A0CE050EA010306D030238DF82830BC
:1039D0008DF82920022292462278582A04D024A267
:1039E0000DF120090B9209E026A2F9E7DDE9082391
:1039F000FCF75AFC0B9B9B5C09F8013D50EA010265
:103A0000F4D1ADEB090020300890680701D44FF0E5
:103A100001080899884503DD0898A8EB000000E03C
:103A200000208046002506E00AA85A46405D0F990E
:103A300090476D1C761C5545F6DB04E030205A4655
:103A40000F999047761CB8F10001A8F10108F5DC48
:103A500005E019F8010B5A460F999047761C089912
:103A6000481E08900029F4DC641CC4E60928010003
:103A700030313233343536373839616263646566E4
:103A800000000000303132333435363738394142A6
:103A9000434445460000000013B54FF6FF73012272
:103AA00069460248FEF78CFD00981CBD14140020E6
:103AB000FDF76AFEFFF768FBFFF7F2F8FFF7D0F9B2
:103AC000FFF762F9FFF78EF9FFF7B0F9FFF77EF81D
:103AD000FFF7B2F800F02FF80F4D40F252340221F8
:103AE0002846FDF729F99620FCF79AFF022128467F
:103AF000FDF722F92046FCF793FF01212846FDF748
:103B00001BF99620FCF78CFF01212846FDF714F9DC
:103B10002046FCF785FFE2E7000402400146002052
:103B2000842900D0C81C704710B500B9012000F0EE
:103B300023FB002010BD10B500F044FB002010BD99
:103B40007FB50D4604464169B0F9080081B1A1690D
:103B500071B1FFF7E3FFD4E905128DE80700D4E95E
:103B600000102B46226900F040FC039004B070BDA9
:103B7000FFF7D4FF03A9CDE90001208A2B4682B2CA
:103B8000D4E9001000F004FC012801D00020EDE78A
:103B90000398EBE72DE9F041184C0F460546E6681F
:103BA0002068001D00F020FA38B9206890F82C1029
:103BB00001208840216981432161681C07D137B108
:103BC0002168BDE8F0410E48091D00F051BA206897
:103BD0003544B5424560216805D2A06BBDE8F0418F
:103BE000091D00F02DBA606B091D00F029FAA06ACA
:103BF000854200D2A562BDE8F08100002C000020C3
:103C00007C1500202DE9F041054600F03DFA2E4CD0
:103C1000A068401CA06020682C4F10B1606940B3C0
:103C20002DE02560A068012829D1002606EB86003A
:103C300007EB800000F0F6F9761C072EF6D3234838
:103C40008C3000F0EFF92148A03000F0EBF91F486C
:103C5000B43000F0E7F91D48C83000F0E3F91B4824
:103C6000DC3000F0DFF919488C3060631430A06359
:103C700005E02068E96AC06A884200D82560606A69
:103C8000401C6062E96A012022698840104320617B
:103C900001EB810007EB8000291D00F0E9F900F03D
:103CA00013FA606900280CD02068E96AC06A88426B
:103CB00007D207494FF080500860BFF34F8FBFF322
:103CC0006F8FBDE8F08100002C000020A0140020C0
:103CD00004ED00E010B5044690F8510058B10128F9
:103CE0000CD002280FD0502080F31188BFF34F8FE3
:103CF000BFF36F8FFEE7206B00F0FAF92046BDE8B6
:103D0000104000F0F5B910BD10484FF47051420753
:103D100006D0C01D0D4920F00700411AC1F57051B1
:103D20000B4A00230144C2E900030839183A21F084
:103D3000070111604B600B600B1AC0E90013936020
:103D40004FF0004053605061704700009015002014
:103D500080000020144E154CA6F1C8074FF0805883
:103D6000DFF84C9012E000BF00F08EF9F068C568F3
:103D7000281D00F039F9A068401EA0606068401E50
:103D8000606000F0A1F92846FFF7A4FF60680028F2
:103D9000EAD138680128F9D9C9F80080BFF34F8FFC
:103DA000BFF36F8FF2E70000681500202C000020A1
:103DB00004ED00E02DE9F0479A46DDE909848146EB
:103DC0006FF00303206B03EB82021044089E20F087
:103DD0000707780707D0502080F31188BFF34F8F73
:103DE000BFF36F8FFEE7002561B1002023180A5C46
:103DF00083F834200A5C12B1401C1028F6D384F8F2
:103E0000435001E084F83450072E00D30626E662C2
:103E1000C4E91165201D00F010F904F1180000F04C
:103E20000CF92461C6F107006462A061E56484F8BE
:103E3000505052464946384600F0C0F82060B8F16C
:103E4000000F01D0C8F80040BDE8F08730B5114937
:103E500000E011460A688242FBD34B685C1884423A
:103E600003D1406818444860084643681C189442CF
:103E700009D1084C183C2468A24209D052681A445F
:103E800042600A6812680260814200D0086030BD5A
:103E90000460F9E7800000200648416B096829B1F9
:103EA000416BC968C9684968816270474FF0FF314A
:103EB000FAE700002C00002008484068401C4FF042
:103EC000500080F3118804D0BFF34F8FBFF36F8F82
:103ED000FEE7BFF34F8FBFF36F8FFEE78800002030
:103EE0002DE9F0410546002700F0A2F9324E306876
:103EF00008B9FFF709FF706905424ED1C5B308350F
:103F000068070ED005F00700C0F1080005446807F7
:103F100007D0502080F31188BFF34F8FBFF36F8F0E
:103F2000FEE72DB37068854237D823481830014624
:103F30000C6801E020460C466168A94202D2216863
:103F40000029F7D131688C4227D0076821680160C9
:103F500060680837411B10290FD96019420708D043
:103F6000502080F31188BFF34F8FBFF36F8FFEE7B0
:103F700013E041606560FFF769FF61687068401A8F
:103F80007060B268904200D2B06070690143002056
:103F9000C4E90001F068401CF06000F0B7FA78074F
:103FA00007D0502080F31188BFF34F8FBFF36F8F7E
:103FB000FEE73846BDE8F0816800002010B5031F19
:103FC0004FF080741C601B1F21F001011960191F44
:103FD000044B0B6014390A60091F6FF00202443869
:103FE0000A6010BDB93E0008D0E9013201699A604B
:103FF000D0E901235A604A68824201D182684A604E
:10400000002202610868401E0860086870470000CE
:10401000034B036003F15400086080201060704778
:104020009810002000F108014FF0FF32C0E90112A2
:10403000C16001610021016070470021016170478A
:1040400030B50B685A1C02D000F1080202E0026988
:1040500004E02246546825689D42FAD953684B60B3
:1040600099608A60516008610168491C016030BD37
:1040700042684A6093688B609368596091600861F8
:104080000168491C01607047502080F31188BFF31C
:104090004F8FBFF36F8F0A494868401C4860012862
:1040A0000CD10848006810F0FF0F07D0502080F3B3
:1040B0001188BFF34F8FBFF36F8FFEE7704700008B
:1040C0008800002004ED00E00849486828B1401E3F
:1040D000486001D180F311887047502080F3118827
:1040E000BFF34F8FBFF36F8FFEE700008800002003
:1040F00070B500282AD0164DA0F1080460686969DF
:10410000084207D1502080F31188BFF34F8FBFF3CF
:104110006F8FFEE722683AB1502080F31188BFF319
:104120004F8FBFF36F8FFEE78843606000F080F829
:1041300060686968084468602046FFF787FE286960
:10414000401C2861BDE8704000F0E0B970BD00007F
:10415000680000204FF0E0200021016181610549E5
:104160004FF47A720968B1FBF2F1491E41610721EF
:10417000016170472800002010B5020014D00F48DC
:10418000006B38B1502080F31188BFF34F8FBFF31D
:104190006F8FFEE700F04CF800211046FFF7FAFCA5
:1041A00000F0B4F9002807D105494FF080500860AD
:1041B000BFF34F8FBFF36F8F10BD00002C000020A6
:1041C00004ED00E010B586B00024039405AA04A90C
:1041D00003A80494FFF71CFFDDE903010094CDE977
:1041E000011000230EA11048059A00F0FEF80F49B7
:1041F0000028C86211D0502080F31188BFF34F8F80
:10420000BFF36F8F4FF0FF30886201204861CC60B0
:1042100006B0BDE8104000F041B806B010BD000087
:1042200049444C4500000000553D00082C0000208A
:104230000248016B491C0163704700002C000020FC
:104240001448016B11B10121C16170470021C161A6
:104250000169B1FA81F1C1F11F0101EB81020E493F
:1042600051F822306BB101EB820101F108034A6879
:1042700052684A609A4201D152684A60D16801602E
:104280007047502080F31188BFF34F8FBFF36F8FBB
:10429000FEE700002C000020A01400201CB53748C9
:1042A0000168374A914207D1502080F31188BFF34B
:1042B0004F8FBFF36F8FFEE700683149491E884278
:1042C00007D1502080F31188BFF34F8FBFF36F8F5A
:1042D000FEE72C4908780190FF20087008788DF8D7
:1042E00000009DF800009DF8002000F0F0009042D2
:1042F00007D0502080F31188BFF34F8FBFF36F8F2B
:10430000FEE79DF80000204C00F0500020700720D0
:10431000A06005E09DF8002052008DF80020401EAE
:104320009DF800201206F5D4A060032807D0502085
:1043300080F31188BFF34F8FBFF36F8FFEE74FF409
:104340004070A060019808700C482030016841F46A
:1043500070010160016841F070410160FFF7FAFEF1
:1043600000206060FBF752FF0848016841F04041BF
:104370000160FBF737FF00201CBD000000ED00E0EE
:1043800071C20F4100E400E08800002034EF00E03B
:104390002DE9FF5F8346DDE90E87994616468A467A
:1043A0009000FFF79DFD05001CD05420FFF798FDFD
:1043B000040014D00020256384F85100CDE90240A8
:1043C000CDE900874B46324651465846FFF7F2FC8E
:1043D0002046FFF717FC012004B0BDE8F09F2846F7
:1043E000FFF786FE4FF0FF30F6E7F0B585B0DDE968
:1043F0000B640A9DA6B1DCB1542700972663022600
:1044000084F85160002604AFCDE90246CDE900579B
:10441000FFF7D0FC2046FFF7F5FB049805B0F0BD90
:10442000502080F31188BFF34F8FBFF36F8FFEE7EB
:10443000502080F31188BFF34F8FBFF36F8FFEE7DB
:104440002DE9F0412F4C0026206B28B1A069401CBB
:10445000A0613046BDE8F081E5686D1CE56013D1D0
:10446000606B006838B1502080F31188BFF34F8F24
:10447000BFF36F8FFEE7606BA16B6163A063206A7F
:10448000401C2062FFF708FDA06ADFF87C808542AF
:1044900009D3606B0068A0B1606BC068C7687868BA
:1044A000854211D2A0622068C06A00EB800158F8F2
:1044B0002100012800D90126E0690028C9D0012681
:1044C000C7E74FF0FF30EDE7381DFFF78DFDB86A05
:1044D00018B107F11800FFF787FDF96A012022697A
:1044E00088401043206101EB810108EB8100391DF8
:1044F000FFF7BEFDF86A2168C96A8842C9D3012660
:10450000C7E700002C000020A01400202DE9F04790
:104510002C4D00242746286B38B1FFF7B5FD286BDA
:10452000401E2863286B40B146E0502080F311887C
:10453000BFF34F8FBFF36F8FFEE7A968224E0120B4
:10454000D1B3A6F1B40980463068E8B1F068C46818
:1045500004F11800FFF748FD201DFFF745FDE06A54
:104560002A6908FA00F11143296100EB800109EB87
:104570008100211DFFF77CFDE06A2968C96A884235
:10458000E2D3C5F81C80DFE70CB1FFF785FCAC690E
:1045900044B14646FFF754FF00B1EE61641EF9D105
:1045A0000020A861E86938B1084901273807086088
:1045B000BFF34F8FBFF36F8FFFF786FD3846BDE81F
:1045C000F08700002C0000205415002004ED00E0CE
:1045D0006C460008E1300008000000000000000008
:1045E0008000000000000000000000006446000899
:1045F000F130000800000000000000008000000012
:104600000000000000000000584600083D3100088E
:10461000000000000000000080000000000000001A
:10462000000000005C46000849310008000000005E
:1046300000000000800000000000000000000000FA
:104640000000000000000000010203040607080942
:104650000000000001020304434F4D0044656275F1
:1046600067000000426C696E6B0000006465666163
:10467000756C745461736B0098460008000000204C
:1046800098000000B8370008304700089800002064
:10469000F8540000C83700080000000000000000C7
:1046A000000000000000000000000000000000000A
:1046B00000000000010000001000000000000000E9
:1046C0000024F400000000000000000000000000D2
:1046D00000000000000000000000000000000000DA
:1046E00000000000000000000000000000000000CA
:1046F00000000000000000000000000000000000BA
:1047000000000000000000000000000000000000A9
:104710000000000000000000000000000000000099
:1047200000000000AAAAAAAA0000000000000000E1
:04000005080001AD41
:00000001FF
